{
  "_format": "hh-sol-artifact-1",
  "contractName": "MyNFT",
  "sourceName": "contracts/MyNFT.sol",
  "abi": [
    {
      "inputs": [],
      "stateMutability": "nonpayable",
      "type": "constructor"
    },
    {
      "anonymous": false,
      "inputs": [
        {
          "indexed": true,
          "internalType": "address",
          "name": "owner",
          "type": "address"
        },
        {
          "indexed": true,
          "internalType": "address",
          "name": "approved",
          "type": "address"
        },
        {
          "indexed": true,
          "internalType": "uint256",
          "name": "tokenId",
          "type": "uint256"
        }
      ],
      "name": "Approval",
      "type": "event"
    },
    {
      "anonymous": false,
      "inputs": [
        {
          "indexed": true,
          "internalType": "address",
          "name": "owner",
          "type": "address"
        },
        {
          "indexed": true,
          "internalType": "address",
          "name": "operator",
          "type": "address"
        },
        {
          "indexed": false,
          "internalType": "bool",
          "name": "approved",
          "type": "bool"
        }
      ],
      "name": "ApprovalForAll",
      "type": "event"
    },
    {
      "anonymous": false,
      "inputs": [
        {
          "indexed": false,
          "internalType": "address",
          "name": "_seller",
          "type": "address"
        },
        {
          "indexed": false,
          "internalType": "address",
          "name": "_buyer",
          "type": "address"
        },
        {
          "indexed": false,
          "internalType": "uint256",
          "name": "_price",
          "type": "uint256"
        }
      ],
      "name": "NftBought",
      "type": "event"
    },
    {
      "anonymous": false,
      "inputs": [
        {
          "indexed": true,
          "internalType": "address",
          "name": "previousOwner",
          "type": "address"
        },
        {
          "indexed": true,
          "internalType": "address",
          "name": "newOwner",
          "type": "address"
        }
      ],
      "name": "OwnershipTransferred",
      "type": "event"
    },
    {
      "anonymous": false,
      "inputs": [
        {
          "indexed": true,
          "internalType": "address",
          "name": "from",
          "type": "address"
        },
        {
          "indexed": true,
          "internalType": "address",
          "name": "to",
          "type": "address"
        },
        {
          "indexed": true,
          "internalType": "uint256",
          "name": "tokenId",
          "type": "uint256"
        }
      ],
      "name": "Transfer",
      "type": "event"
    },
    {
      "anonymous": false,
      "inputs": [
        {
          "indexed": true,
          "internalType": "address",
          "name": "_from",
          "type": "address"
        },
        {
          "indexed": true,
          "internalType": "address",
          "name": "_to",
          "type": "address"
        },
        {
          "indexed": true,
          "internalType": "uint256",
          "name": "_tokenId",
          "type": "uint256"
        }
      ],
      "name": "Transfer1",
      "type": "event"
    },
    {
      "inputs": [
        {
          "internalType": "uint256",
          "name": "_tokenId",
          "type": "uint256"
        },
        {
          "internalType": "uint256",
          "name": "_price",
          "type": "uint256"
        },
        {
          "internalType": "address",
          "name": "_ownerAddress",
          "type": "address"
        }
      ],
      "name": "allowBuy",
      "outputs": [],
      "stateMutability": "nonpayable",
      "type": "function"
    },
    {
      "inputs": [
        {
          "internalType": "address",
          "name": "to",
          "type": "address"
        },
        {
          "internalType": "uint256",
          "name": "tokenId",
          "type": "uint256"
        }
      ],
      "name": "approve",
      "outputs": [],
      "stateMutability": "nonpayable",
      "type": "function"
    },
    {
      "inputs": [
        {
          "internalType": "address",
          "name": "owner",
          "type": "address"
        }
      ],
      "name": "balanceOf",
      "outputs": [
        {
          "internalType": "uint256",
          "name": "",
          "type": "uint256"
        }
      ],
      "stateMutability": "view",
      "type": "function"
    },
    {
      "inputs": [
        {
          "internalType": "uint256",
          "name": "_tokenId",
          "type": "uint256"
        },
        {
          "internalType": "address",
          "name": "_buyeraddress",
          "type": "address"
        }
      ],
      "name": "buy",
      "outputs": [],
      "stateMutability": "payable",
      "type": "function"
    },
    {
      "inputs": [
        {
          "internalType": "uint256",
          "name": "tokenId",
          "type": "uint256"
        }
      ],
      "name": "getApproved",
      "outputs": [
        {
          "internalType": "address",
          "name": "",
          "type": "address"
        }
      ],
      "stateMutability": "view",
      "type": "function"
    },
    {
      "inputs": [
        {
          "internalType": "uint256",
          "name": "_tokenId",
          "type": "uint256"
        },
        {
          "internalType": "address",
          "name": "_tokenAddress",
          "type": "address"
        }
      ],
      "name": "getCarbonPoints",
      "outputs": [
        {
          "internalType": "uint256",
          "name": "",
          "type": "uint256"
        }
      ],
      "stateMutability": "nonpayable",
      "type": "function"
    },
    {
      "inputs": [
        {
          "internalType": "uint256",
          "name": "_tokenId",
          "type": "uint256"
        },
        {
          "internalType": "address",
          "name": "_tokenAddress",
          "type": "address"
        }
      ],
      "name": "getPrice",
      "outputs": [
        {
          "internalType": "uint256",
          "name": "",
          "type": "uint256"
        }
      ],
      "stateMutability": "nonpayable",
      "type": "function"
    },
    {
      "inputs": [
        {
          "internalType": "address",
          "name": "owner",
          "type": "address"
        },
        {
          "internalType": "address",
          "name": "operator",
          "type": "address"
        }
      ],
      "name": "isApprovedForAll",
      "outputs": [
        {
          "internalType": "bool",
          "name": "",
          "type": "bool"
        }
      ],
      "stateMutability": "view",
      "type": "function"
    },
    {
      "inputs": [
        {
          "internalType": "address",
          "name": "recipient",
          "type": "address"
        },
        {
          "internalType": "string",
          "name": "tokenURI",
          "type": "string"
        }
      ],
      "name": "mintNFT",
      "outputs": [
        {
          "internalType": "uint256",
          "name": "",
          "type": "uint256"
        }
      ],
      "stateMutability": "nonpayable",
      "type": "function"
    },
    {
      "inputs": [],
      "name": "name",
      "outputs": [
        {
          "internalType": "string",
          "name": "",
          "type": "string"
        }
      ],
      "stateMutability": "view",
      "type": "function"
    },
    {
      "inputs": [],
      "name": "owner",
      "outputs": [
        {
          "internalType": "address",
          "name": "",
          "type": "address"
        }
      ],
      "stateMutability": "view",
      "type": "function"
    },
    {
      "inputs": [
        {
          "internalType": "uint256",
          "name": "tokenId",
          "type": "uint256"
        }
      ],
      "name": "ownerOf",
      "outputs": [
        {
          "internalType": "address",
          "name": "",
          "type": "address"
        }
      ],
      "stateMutability": "view",
      "type": "function"
    },
    {
      "inputs": [],
      "name": "renounceOwnership",
      "outputs": [],
      "stateMutability": "nonpayable",
      "type": "function"
    },
    {
      "inputs": [
        {
          "internalType": "address",
          "name": "from",
          "type": "address"
        },
        {
          "internalType": "address",
          "name": "to",
          "type": "address"
        },
        {
          "internalType": "uint256",
          "name": "tokenId",
          "type": "uint256"
        }
      ],
      "name": "safeTransferFrom",
      "outputs": [],
      "stateMutability": "nonpayable",
      "type": "function"
    },
    {
      "inputs": [
        {
          "internalType": "address",
          "name": "from",
          "type": "address"
        },
        {
          "internalType": "address",
          "name": "to",
          "type": "address"
        },
        {
          "internalType": "uint256",
          "name": "tokenId",
          "type": "uint256"
        },
        {
          "internalType": "bytes",
          "name": "_data",
          "type": "bytes"
        }
      ],
      "name": "safeTransferFrom",
      "outputs": [],
      "stateMutability": "nonpayable",
      "type": "function"
    },
    {
      "inputs": [
        {
          "internalType": "address",
          "name": "operator",
          "type": "address"
        },
        {
          "internalType": "bool",
          "name": "approved",
          "type": "bool"
        }
      ],
      "name": "setApprovalForAll",
      "outputs": [],
      "stateMutability": "nonpayable",
      "type": "function"
    },
    {
      "inputs": [
        {
          "internalType": "uint256",
          "name": "_tokenId",
          "type": "uint256"
        },
        {
          "internalType": "uint256",
          "name": "_CP",
          "type": "uint256"
        },
        {
          "internalType": "address",
          "name": "_tokenAddress",
          "type": "address"
        },
        {
          "internalType": "address",
          "name": "_ownerAddress",
          "type": "address"
        }
      ],
      "name": "setCarbonPoints",
      "outputs": [],
      "stateMutability": "nonpayable",
      "type": "function"
    },
    {
      "inputs": [
        {
          "internalType": "uint256",
          "name": "_tokenId",
          "type": "uint256"
        },
        {
          "internalType": "uint256",
          "name": "_price",
          "type": "uint256"
        },
        {
          "internalType": "address",
          "name": "_tokenAddress",
          "type": "address"
        },
        {
          "internalType": "address",
          "name": "_ownerAddress",
          "type": "address"
        }
      ],
      "name": "setPrice",
      "outputs": [],
      "stateMutability": "nonpayable",
      "type": "function"
    },
    {
      "inputs": [
        {
          "internalType": "bytes4",
          "name": "interfaceId",
          "type": "bytes4"
        }
      ],
      "name": "supportsInterface",
      "outputs": [
        {
          "internalType": "bool",
          "name": "",
          "type": "bool"
        }
      ],
      "stateMutability": "view",
      "type": "function"
    },
    {
      "inputs": [],
      "name": "symbol",
      "outputs": [
        {
          "internalType": "string",
          "name": "",
          "type": "string"
        }
      ],
      "stateMutability": "view",
      "type": "function"
    },
    {
      "inputs": [
        {
          "internalType": "uint256",
          "name": "",
          "type": "uint256"
        }
      ],
      "name": "tokenIdToCP",
      "outputs": [
        {
          "internalType": "uint256",
          "name": "",
          "type": "uint256"
        }
      ],
      "stateMutability": "view",
      "type": "function"
    },
    {
      "inputs": [
        {
          "internalType": "uint256",
          "name": "",
          "type": "uint256"
        }
      ],
      "name": "tokenIdToPrice",
      "outputs": [
        {
          "internalType": "uint256",
          "name": "",
          "type": "uint256"
        }
      ],
      "stateMutability": "view",
      "type": "function"
    },
    {
      "inputs": [
        {
          "internalType": "uint256",
          "name": "",
          "type": "uint256"
        }
      ],
      "name": "tokenIdToTokenAddress",
      "outputs": [
        {
          "internalType": "address",
          "name": "",
          "type": "address"
        }
      ],
      "stateMutability": "view",
      "type": "function"
    },
    {
      "inputs": [
        {
          "internalType": "uint256",
          "name": "tokenId",
          "type": "uint256"
        }
      ],
      "name": "tokenURI",
      "outputs": [
        {
          "internalType": "string",
          "name": "",
          "type": "string"
        }
      ],
      "stateMutability": "view",
      "type": "function"
    },
    {
      "inputs": [
        {
          "internalType": "address",
          "name": "_to",
          "type": "address"
        },
        {
          "internalType": "uint256",
          "name": "_tokenId",
          "type": "uint256"
        }
      ],
      "name": "transfer",
      "outputs": [],
      "stateMutability": "nonpayable",
      "type": "function"
    },
    {
      "inputs": [
        {
          "internalType": "address",
          "name": "from",
          "type": "address"
        },
        {
          "internalType": "address",
          "name": "to",
          "type": "address"
        },
        {
          "internalType": "uint256",
          "name": "tokenId",
          "type": "uint256"
        }
      ],
      "name": "transferFrom",
      "outputs": [],
      "stateMutability": "nonpayable",
      "type": "function"
    },
    {
      "inputs": [
        {
          "internalType": "address",
          "name": "newOwner",
          "type": "address"
        }
      ],
      "name": "transferOwnership",
      "outputs": [],
      "stateMutability": "nonpayable",
      "type": "function"
    }
  ],
  "bytecode": "0x60806040523480156200001157600080fd5b506040805180820182526005815264135e53919560da1b60208083019182528351808501909452600384526213919560ea1b9084015281519192916200005a91600091620000e9565b50805162000070906001906020840190620000e9565b5050506200008d620000876200009360201b60201c565b62000097565b620001cc565b3390565b600780546001600160a01b038381166001600160a01b0319831681179093556040519116919082907f8be0079c531659141344cd1fd0a4f28419497f9722a3daafe3b4186f6b6457e090600090a35050565b828054620000f7906200018f565b90600052602060002090601f0160209004810192826200011b576000855562000166565b82601f106200013657805160ff191683800117855562000166565b8280016001018555821562000166579182015b828111156200016657825182559160200191906001019062000149565b506200017492915062000178565b5090565b5b8082111562000174576000815560010162000179565b600281046001821680620001a457607f821691505b60208210811415620001c657634e487b7160e01b600052602260045260246000fd5b50919050565b61214680620001dc6000396000f3fe60806040526004361061019c5760003560e01c80638da5cb5b116100ec578063b88d4fde1161008a578063e985e9c511610064578063e985e9c514610487578063eacabe14146104a7578063f2fde38b146104c7578063f4812eb9146104e75761019c565b8063b88d4fde14610427578063c87b56dd14610447578063dbf79c97146104675761019c565b8063a22cb465116100c6578063a22cb465146103a7578063a6de8c6d146103c7578063a9059cbb146103e7578063b4c635b2146104075761019c565b80638da5cb5b1461035d57806393ba75f51461037257806395d89b41146103925761019c565b80632b57cfbb116101595780636352211e116101335780636352211e146102f557806370a0823114610315578063715018a6146103355780637deb60251461034a5761019c565b80632b57cfbb1461028857806342842e0e146102b55780634624f537146102d55761019c565b806301ffc9a7146101a157806306fdde03146101d7578063081812fc146101f9578063095ea7b31461022657806323b872dd14610248578063284b4b9f14610268575b600080fd5b3480156101ad57600080fd5b506101c16101bc366004611866565b610507565b6040516101ce9190611a21565b60405180910390f35b3480156101e357600080fd5b506101ec61054f565b6040516101ce9190611a2c565b34801561020557600080fd5b5061021961021436600461189e565b6105e1565b6040516101ce91906119ac565b34801561023257600080fd5b5061024661024136600461183d565b61062d565b005b34801561025457600080fd5b506102466102633660046116f0565b6106c5565b34801561027457600080fd5b506102466102833660046118d8565b6106fd565b34801561029457600080fd5b506102a86102a33660046118b6565b610769565b6040516101ce9190611fd6565b3480156102c157600080fd5b506102466102d03660046116f0565b6107a3565b3480156102e157600080fd5b506102466102f036600461190c565b6107be565b34801561030157600080fd5b5061021961031036600461189e565b610832565b34801561032157600080fd5b506102a86103303660046116a4565b610867565b34801561034157600080fd5b506102466108ab565b6102466103583660046118b6565b6108f6565b34801561036957600080fd5b506102196109fa565b34801561037e57600080fd5b506102a861038d3660046118b6565b610a09565b34801561039e57600080fd5b506101ec610a43565b3480156103b357600080fd5b506102466103c23660046117a4565b610a52565b3480156103d357600080fd5b506102466103e236600461190c565b610a68565b3480156103f357600080fd5b5061024661040236600461183d565b610adc565b34801561041357600080fd5b5061021961042236600461189e565b610b58565b34801561043357600080fd5b5061024661044236600461172b565b610b73565b34801561045357600080fd5b506101ec61046236600461189e565b610bb2565b34801561047357600080fd5b506102a861048236600461189e565b610cd3565b34801561049357600080fd5b506101c16104a23660046116be565b610ce5565b3480156104b357600080fd5b506102a86104c23660046117de565b610d13565b3480156104d357600080fd5b506102466104e23660046116a4565b610d87565b3480156104f357600080fd5b506102a861050236600461189e565b610df8565b60006001600160e01b031982166380ac58cd60e01b148061053857506001600160e01b03198216635b5e139f60e01b145b80610547575061054782610e0a565b90505b919050565b60606000805461055e9061204e565b80601f016020809104026020016040519081016040528092919081815260200182805461058a9061204e565b80156105d75780601f106105ac576101008083540402835291602001916105d7565b820191906000526020600020905b8154815290600101906020018083116105ba57829003601f168201915b5050505050905090565b60006105ec82610e23565b6106115760405162461bcd60e51b815260040161060890611dd0565b60405180910390fd5b506000908152600460205260409020546001600160a01b031690565b600061063882610832565b9050806001600160a01b0316836001600160a01b0316141561066c5760405162461bcd60e51b815260040161060890611f0d565b806001600160a01b031661067e610e40565b6001600160a01b0316148061069a575061069a816104a2610e40565b6106b65760405162461bcd60e51b815260040161060890611c0c565b6106c08383610e44565b505050565b6106d66106d0610e40565b82610eb2565b6106f25760405162461bcd60e51b815260040161060890611f85565b6106c0838383610f2f565b61070683610832565b6001600160a01b0316816001600160a01b0316146107365760405162461bcd60e51b815260040161060890611f4e565b600082116107565760405162461bcd60e51b815260040161060890611e9a565b506000918252600a602052604090912055565b6000828152600b6020908152604080832080546001600160a01b0386166001600160a01b0319909116179055600a90915290205492915050565b6106c083838360405180602001604052806000815250610b73565b6107c784610832565b6001600160a01b0316816001600160a01b0316146107f75760405162461bcd60e51b815260040161060890611f4e565b506000928352600a6020908152604080852093909355600b9052912080546001600160a01b0319166001600160a01b03909216919091179055565b6000818152600260205260408120546001600160a01b0316806105475760405162461bcd60e51b815260040161060890611cb3565b60006001600160a01b03821661088f5760405162461bcd60e51b815260040161060890611c69565b506001600160a01b031660009081526003602052604090205490565b6108b3610e40565b6001600160a01b03166108c46109fa565b6001600160a01b0316146108ea5760405162461bcd60e51b815260040161060890611e1c565b6108f4600061105c565b565b6000828152600a6020526040902054806109225760405162461bcd60e51b815260040161060890611a91565b600061092d84610832565b905061093a818486610f2f565b61094384610832565b6001600160a01b0316836001600160a01b0316146109735760405162461bcd60e51b815260040161060890611f4e565b6000848152600a6020526040808220829055516001600160a01b038316913480156108fc02929091818181858888f193505050501580156109b8573d6000803e3d6000fd5b507f608f6ac9327c2bf4d3c77adf447d2c448ba7b0971e0aaa9aa03f7ac29d874a448184346040516109ec939291906119c0565b60405180910390a150505050565b6007546001600160a01b031690565b6000828152600b6020908152604080832080546001600160a01b0386166001600160a01b0319909116179055600990915290205492915050565b60606001805461055e9061204e565b610a64610a5d610e40565b83836110ae565b5050565b610a7184610832565b6001600160a01b0316816001600160a01b031614610aa15760405162461bcd60e51b815260040161060890611f4e565b50600092835260096020908152604080852093909355600b9052912080546001600160a01b0319166001600160a01b03909216919091179055565b6000818152600860205260409020546001600160a01b03163314610aff57600080fd5b60008181526008602052604080822080546001600160a01b0319166001600160a01b0386169081179091559051839233917f45d0465cda3936ccc7ee223b12be71e3f5da003b041626b6faf29ad2c62eb9ae9190a45050565b600b602052600090815260409020546001600160a01b031681565b610b84610b7e610e40565b83610eb2565b610ba05760405162461bcd60e51b815260040161060890611f85565b610bac84848484611151565b50505050565b6060610bbd82610e23565b610bd95760405162461bcd60e51b815260040161060890611d7f565b60008281526006602052604081208054610bf29061204e565b80601f0160208091040260200160405190810160405280929190818152602001828054610c1e9061204e565b8015610c6b5780601f10610c4057610100808354040283529160200191610c6b565b820191906000526020600020905b815481529060010190602001808311610c4e57829003601f168201915b505050505090506000610c7c611184565b9050805160001415610c905750905061054a565b815115610cc2578082604051602001610caa92919061197d565b6040516020818303038152906040529250505061054a565b610ccb84611196565b949350505050565b60096020526000908152604090205481565b6001600160a01b03918216600090815260056020908152604080832093909416825291909152205460ff1690565b6000610d1d610e40565b6001600160a01b0316610d2e6109fa565b6001600160a01b031614610d545760405162461bcd60e51b815260040161060890611e1c565b610d5e600c611218565b6000610d6a600c611221565b9050610d768482611225565b610d808184611304565b9392505050565b610d8f610e40565b6001600160a01b0316610da06109fa565b6001600160a01b031614610dc65760405162461bcd60e51b815260040161060890611e1c565b6001600160a01b038116610dec5760405162461bcd60e51b815260040161060890611ac8565b610df58161105c565b50565b600a6020526000908152604090205481565b6001600160e01b031981166301ffc9a760e01b14919050565b6000908152600260205260409020546001600160a01b0316151590565b3390565b600081815260046020526040902080546001600160a01b0319166001600160a01b0384169081179091558190610e7982610832565b6001600160a01b03167f8c5be1e5ebec7d5bd14f71427d1e84f3dd0314c0f7b2291e5b200ac8c7c3b92560405160405180910390a45050565b6000610ebd82610e23565b610ed95760405162461bcd60e51b815260040161060890611bc0565b6000610ee483610832565b9050806001600160a01b0316846001600160a01b03161480610f1f5750836001600160a01b0316610f14846105e1565b6001600160a01b0316145b80610ccb5750610ccb8185610ce5565b826001600160a01b0316610f4282610832565b6001600160a01b031614610f685760405162461bcd60e51b815260040161060890611e51565b6001600160a01b038216610f8e5760405162461bcd60e51b815260040161060890611b45565b610f998383836106c0565b610fa4600082610e44565b6001600160a01b0383166000908152600360205260408120805460019290610fcd90849061200b565b90915550506001600160a01b0382166000908152600360205260408120805460019290610ffb908490611fdf565b909155505060008181526002602052604080822080546001600160a01b0319166001600160a01b0386811691821790925591518493918716917fddf252ad1be2c89b69c2b068fc378daa952ba7f163c4a11628f55a4df523b3ef91a4505050565b600780546001600160a01b038381166001600160a01b0319831681179093556040519116919082907f8be0079c531659141344cd1fd0a4f28419497f9722a3daafe3b4186f6b6457e090600090a35050565b816001600160a01b0316836001600160a01b031614156110e05760405162461bcd60e51b815260040161060890611b89565b6001600160a01b0383811660008181526005602090815260408083209487168084529490915290819020805460ff1916851515179055517f17307eab39ab6107e8899845ad3d59bd9653f200f220920489ca2b5937696c3190611144908590611a21565b60405180910390a3505050565b61115c848484610f2f565b61116884848484611348565b610bac5760405162461bcd60e51b815260040161060890611a3f565b60408051602081019091526000815290565b60606111a182610e23565b6111bd5760405162461bcd60e51b815260040161060890611ebe565b60006111c7611184565b905060008151116111e75760405180602001604052806000815250610d80565b806111f184611463565b60405160200161120292919061197d565b6040516020818303038152906040529392505050565b80546001019055565b5490565b6001600160a01b03821661124b5760405162461bcd60e51b815260040161060890611d4a565b61125481610e23565b156112715760405162461bcd60e51b815260040161060890611b0e565b61127d600083836106c0565b6001600160a01b03821660009081526003602052604081208054600192906112a6908490611fdf565b909155505060008181526002602052604080822080546001600160a01b0319166001600160a01b03861690811790915590518392907fddf252ad1be2c89b69c2b068fc378daa952ba7f163c4a11628f55a4df523b3ef908290a45050565b61130d82610e23565b6113295760405162461bcd60e51b815260040161060890611cfc565b600082815260066020908152604090912082516106c092840190611584565b600061135c846001600160a01b031661157e565b1561145857836001600160a01b031663150b7a02611378610e40565b8786866040518563ffffffff1660e01b815260040161139a94939291906119e4565b602060405180830381600087803b1580156113b457600080fd5b505af19250505080156113e4575060408051601f3d908101601f191682019092526113e191810190611882565b60015b61143e573d808015611412576040519150601f19603f3d011682016040523d82523d6000602084013e611417565b606091505b5080516114365760405162461bcd60e51b815260040161060890611a3f565b805181602001fd5b6001600160e01b031916630a85bd0160e11b149050610ccb565b506001949350505050565b60608161148857506040805180820190915260018152600360fc1b602082015261054a565b8160005b81156114b2578061149c81612089565b91506114ab9050600a83611ff7565b915061148c565b60008167ffffffffffffffff8111156114db57634e487b7160e01b600052604160045260246000fd5b6040519080825280601f01601f191660200182016040528015611505576020820181803683370190505b5090505b8415610ccb5761151a60018361200b565b9150611527600a866120a4565b611532906030611fdf565b60f81b81838151811061155557634e487b7160e01b600052603260045260246000fd5b60200101906001600160f81b031916908160001a905350611577600a86611ff7565b9450611509565b3b151590565b8280546115909061204e565b90600052602060002090601f0160209004810192826115b257600085556115f8565b82601f106115cb57805160ff19168380011785556115f8565b828001600101855582156115f8579182015b828111156115f85782518255916020019190600101906115dd565b50611604929150611608565b5090565b5b808211156116045760008155600101611609565b600067ffffffffffffffff80841115611638576116386120e4565b604051601f8501601f19168101602001828111828210171561165c5761165c6120e4565b60405284815291508183850186101561167457600080fd5b8484602083013760006020868301015250509392505050565b80356001600160a01b038116811461054a57600080fd5b6000602082840312156116b5578081fd5b610d808261168d565b600080604083850312156116d0578081fd5b6116d98361168d565b91506116e76020840161168d565b90509250929050565b600080600060608486031215611704578081fd5b61170d8461168d565b925061171b6020850161168d565b9150604084013590509250925092565b60008060008060808587031215611740578081fd5b6117498561168d565b93506117576020860161168d565b925060408501359150606085013567ffffffffffffffff811115611779578182fd5b8501601f81018713611789578182fd5b6117988782356020840161161d565b91505092959194509250565b600080604083850312156117b6578182fd5b6117bf8361168d565b9150602083013580151581146117d3578182fd5b809150509250929050565b600080604083850312156117f0578182fd5b6117f98361168d565b9150602083013567ffffffffffffffff811115611814578182fd5b8301601f81018513611824578182fd5b6118338582356020840161161d565b9150509250929050565b6000806040838503121561184f578182fd5b6118588361168d565b946020939093013593505050565b600060208284031215611877578081fd5b8135610d80816120fa565b600060208284031215611893578081fd5b8151610d80816120fa565b6000602082840312156118af578081fd5b5035919050565b600080604083850312156118c8578182fd5b823591506116e76020840161168d565b6000806000606084860312156118ec578283fd5b83359250602084013591506119036040850161168d565b90509250925092565b60008060008060808587031215611921578384fd5b84359350602085013592506119386040860161168d565b91506119466060860161168d565b905092959194509250565b60008151808452611969816020860160208601612022565b601f01601f19169290920160200192915050565b6000835161198f818460208801612022565b8351908301906119a3818360208801612022565b01949350505050565b6001600160a01b0391909116815260200190565b6001600160a01b039384168152919092166020820152604081019190915260600190565b6001600160a01b0385811682528416602082015260408101839052608060608201819052600090611a1790830184611951565b9695505050505050565b901515815260200190565b600060208252610d806020830184611951565b60208082526032908201527f4552433732313a207472616e7366657220746f206e6f6e20455243373231526560408201527131b2b4bb32b91034b6b83632b6b2b73a32b960711b606082015260800190565b6020808252601a908201527f5468697320746f6b656e206973206e6f7420666f722073616c65000000000000604082015260600190565b60208082526026908201527f4f776e61626c653a206e6577206f776e657220697320746865207a65726f206160408201526564647265737360d01b606082015260800190565b6020808252601c908201527f4552433732313a20746f6b656e20616c7265616479206d696e74656400000000604082015260600190565b60208082526024908201527f4552433732313a207472616e7366657220746f20746865207a65726f206164646040820152637265737360e01b606082015260800190565b60208082526019908201527f4552433732313a20617070726f766520746f2063616c6c657200000000000000604082015260600190565b6020808252602c908201527f4552433732313a206f70657261746f7220717565727920666f72206e6f6e657860408201526b34b9ba32b73a103a37b5b2b760a11b606082015260800190565b60208082526038908201527f4552433732313a20617070726f76652063616c6c6572206973206e6f74206f7760408201527f6e6572206e6f7220617070726f76656420666f7220616c6c0000000000000000606082015260800190565b6020808252602a908201527f4552433732313a2062616c616e636520717565727920666f7220746865207a65604082015269726f206164647265737360b01b606082015260800190565b60208082526029908201527f4552433732313a206f776e657220717565727920666f72206e6f6e657869737460408201526832b73a103a37b5b2b760b91b606082015260800190565b6020808252602e908201527f45524337323155524953746f726167653a2055524920736574206f66206e6f6e60408201526d32bc34b9ba32b73a103a37b5b2b760911b606082015260800190565b6020808252818101527f4552433732313a206d696e7420746f20746865207a65726f2061646472657373604082015260600190565b60208082526031908201527f45524337323155524953746f726167653a2055524920717565727920666f72206040820152703737b732bc34b9ba32b73a103a37b5b2b760791b606082015260800190565b6020808252602c908201527f4552433732313a20617070726f76656420717565727920666f72206e6f6e657860408201526b34b9ba32b73a103a37b5b2b760a11b606082015260800190565b6020808252818101527f4f776e61626c653a2063616c6c6572206973206e6f7420746865206f776e6572604082015260600190565b60208082526029908201527f4552433732313a207472616e73666572206f6620746f6b656e2074686174206960408201526839903737ba1037bbb760b91b606082015260800190565b6020808252600a90820152695072696365207a65726f60b01b604082015260600190565b6020808252602f908201527f4552433732314d657461646174613a2055524920717565727920666f72206e6f60408201526e3732bc34b9ba32b73a103a37b5b2b760891b606082015260800190565b60208082526021908201527f4552433732313a20617070726f76616c20746f2063757272656e74206f776e656040820152603960f91b606082015260800190565b60208082526017908201527f4e6f74206f776e6572206f66207468697320746f6b656e000000000000000000604082015260600190565b60208082526031908201527f4552433732313a207472616e736665722063616c6c6572206973206e6f74206f6040820152701ddb995c881b9bdc88185c1c1c9bdd9959607a1b606082015260800190565b90815260200190565b60008219821115611ff257611ff26120b8565b500190565b600082612006576120066120ce565b500490565b60008282101561201d5761201d6120b8565b500390565b60005b8381101561203d578181015183820152602001612025565b83811115610bac5750506000910152565b60028104600182168061206257607f821691505b6020821081141561208357634e487b7160e01b600052602260045260246000fd5b50919050565b600060001982141561209d5761209d6120b8565b5060010190565b6000826120b3576120b36120ce565b500690565b634e487b7160e01b600052601160045260246000fd5b634e487b7160e01b600052601260045260246000fd5b634e487b7160e01b600052604160045260246000fd5b6001600160e01b031981168114610df557600080fdfea26469706673582212204951c7c117bbe24e83e81ac8d045037745cd7fd207c9323345b65171a91f333d64736f6c63430008000033",
  "linkReferences": {},
  "deployedLinkReferences": {}
}