{
  "_format": "hh-sol-artifact-1",
  "contractName": "MyNFT",
  "sourceName": "contracts/MyNFT.sol",
  "abi": [
    {
      "inputs": [],
      "stateMutability": "nonpayable",
      "type": "constructor"
    },
    {
      "anonymous": false,
      "inputs": [
        {
          "indexed": true,
          "internalType": "address",
          "name": "owner",
          "type": "address"
        },
        {
          "indexed": true,
          "internalType": "address",
          "name": "approved",
          "type": "address"
        },
        {
          "indexed": true,
          "internalType": "uint256",
          "name": "tokenId",
          "type": "uint256"
        }
      ],
      "name": "Approval",
      "type": "event"
    },
    {
      "anonymous": false,
      "inputs": [
        {
          "indexed": true,
          "internalType": "address",
          "name": "owner",
          "type": "address"
        },
        {
          "indexed": true,
          "internalType": "address",
          "name": "operator",
          "type": "address"
        },
        {
          "indexed": false,
          "internalType": "bool",
          "name": "approved",
          "type": "bool"
        }
      ],
      "name": "ApprovalForAll",
      "type": "event"
    },
    {
      "anonymous": false,
      "inputs": [
        {
          "indexed": false,
          "internalType": "address",
          "name": "_seller",
          "type": "address"
        },
        {
          "indexed": false,
          "internalType": "address",
          "name": "_buyer",
          "type": "address"
        },
        {
          "indexed": false,
          "internalType": "uint256",
          "name": "_price",
          "type": "uint256"
        }
      ],
      "name": "NftBought",
      "type": "event"
    },
    {
      "anonymous": false,
      "inputs": [
        {
          "indexed": true,
          "internalType": "address",
          "name": "previousOwner",
          "type": "address"
        },
        {
          "indexed": true,
          "internalType": "address",
          "name": "newOwner",
          "type": "address"
        }
      ],
      "name": "OwnershipTransferred",
      "type": "event"
    },
    {
      "anonymous": false,
      "inputs": [
        {
          "indexed": true,
          "internalType": "address",
          "name": "from",
          "type": "address"
        },
        {
          "indexed": true,
          "internalType": "address",
          "name": "to",
          "type": "address"
        },
        {
          "indexed": true,
          "internalType": "uint256",
          "name": "tokenId",
          "type": "uint256"
        }
      ],
      "name": "Transfer",
      "type": "event"
    },
    {
      "anonymous": false,
      "inputs": [
        {
          "indexed": true,
          "internalType": "address",
          "name": "_from",
          "type": "address"
        },
        {
          "indexed": true,
          "internalType": "address",
          "name": "_to",
          "type": "address"
        },
        {
          "indexed": true,
          "internalType": "uint256",
          "name": "_tokenId",
          "type": "uint256"
        }
      ],
      "name": "Transfer1",
      "type": "event"
    },
    {
      "inputs": [
        {
          "internalType": "uint256",
          "name": "_tokenId",
          "type": "uint256"
        },
        {
          "internalType": "uint256",
          "name": "_price",
          "type": "uint256"
        },
        {
          "internalType": "address",
          "name": "_ownerAddress",
          "type": "address"
        }
      ],
      "name": "allowBuy",
      "outputs": [],
      "stateMutability": "nonpayable",
      "type": "function"
    },
    {
      "inputs": [
        {
          "internalType": "address",
          "name": "to",
          "type": "address"
        },
        {
          "internalType": "uint256",
          "name": "tokenId",
          "type": "uint256"
        }
      ],
      "name": "approve",
      "outputs": [],
      "stateMutability": "nonpayable",
      "type": "function"
    },
    {
      "inputs": [
        {
          "internalType": "address",
          "name": "owner",
          "type": "address"
        }
      ],
      "name": "balanceOf",
      "outputs": [
        {
          "internalType": "uint256",
          "name": "",
          "type": "uint256"
        }
      ],
      "stateMutability": "view",
      "type": "function"
    },
    {
      "inputs": [
        {
          "internalType": "uint256",
          "name": "_tokenId",
          "type": "uint256"
        },
        {
          "internalType": "address",
          "name": "_buyeraddress",
          "type": "address"
        }
      ],
      "name": "buy",
      "outputs": [],
      "stateMutability": "payable",
      "type": "function"
    },
    {
      "inputs": [
        {
          "internalType": "uint256",
          "name": "tokenId",
          "type": "uint256"
        }
      ],
      "name": "getApproved",
      "outputs": [
        {
          "internalType": "address",
          "name": "",
          "type": "address"
        }
      ],
      "stateMutability": "view",
      "type": "function"
    },
    {
      "inputs": [
        {
          "internalType": "uint256",
          "name": "_tokenId",
          "type": "uint256"
        },
        {
          "internalType": "address",
          "name": "_tokenAddress",
          "type": "address"
        }
      ],
      "name": "getPrice",
      "outputs": [
        {
          "internalType": "uint256",
          "name": "",
          "type": "uint256"
        }
      ],
      "stateMutability": "nonpayable",
      "type": "function"
    },
    {
      "inputs": [
        {
          "internalType": "address",
          "name": "owner",
          "type": "address"
        },
        {
          "internalType": "address",
          "name": "operator",
          "type": "address"
        }
      ],
      "name": "isApprovedForAll",
      "outputs": [
        {
          "internalType": "bool",
          "name": "",
          "type": "bool"
        }
      ],
      "stateMutability": "view",
      "type": "function"
    },
    {
      "inputs": [
        {
          "internalType": "address",
          "name": "recipient",
          "type": "address"
        },
        {
          "internalType": "string",
          "name": "tokenURI",
          "type": "string"
        }
      ],
      "name": "mintNFT",
      "outputs": [
        {
          "internalType": "uint256",
          "name": "",
          "type": "uint256"
        }
      ],
      "stateMutability": "nonpayable",
      "type": "function"
    },
    {
      "inputs": [],
      "name": "name",
      "outputs": [
        {
          "internalType": "string",
          "name": "",
          "type": "string"
        }
      ],
      "stateMutability": "view",
      "type": "function"
    },
    {
      "inputs": [],
      "name": "owner",
      "outputs": [
        {
          "internalType": "address",
          "name": "",
          "type": "address"
        }
      ],
      "stateMutability": "view",
      "type": "function"
    },
    {
      "inputs": [
        {
          "internalType": "uint256",
          "name": "tokenId",
          "type": "uint256"
        }
      ],
      "name": "ownerOf",
      "outputs": [
        {
          "internalType": "address",
          "name": "",
          "type": "address"
        }
      ],
      "stateMutability": "view",
      "type": "function"
    },
    {
      "inputs": [],
      "name": "renounceOwnership",
      "outputs": [],
      "stateMutability": "nonpayable",
      "type": "function"
    },
    {
      "inputs": [
        {
          "internalType": "address",
          "name": "from",
          "type": "address"
        },
        {
          "internalType": "address",
          "name": "to",
          "type": "address"
        },
        {
          "internalType": "uint256",
          "name": "tokenId",
          "type": "uint256"
        }
      ],
      "name": "safeTransferFrom",
      "outputs": [],
      "stateMutability": "nonpayable",
      "type": "function"
    },
    {
      "inputs": [
        {
          "internalType": "address",
          "name": "from",
          "type": "address"
        },
        {
          "internalType": "address",
          "name": "to",
          "type": "address"
        },
        {
          "internalType": "uint256",
          "name": "tokenId",
          "type": "uint256"
        },
        {
          "internalType": "bytes",
          "name": "_data",
          "type": "bytes"
        }
      ],
      "name": "safeTransferFrom",
      "outputs": [],
      "stateMutability": "nonpayable",
      "type": "function"
    },
    {
      "inputs": [
        {
          "internalType": "address",
          "name": "operator",
          "type": "address"
        },
        {
          "internalType": "bool",
          "name": "approved",
          "type": "bool"
        }
      ],
      "name": "setApprovalForAll",
      "outputs": [],
      "stateMutability": "nonpayable",
      "type": "function"
    },
    {
      "inputs": [
        {
          "internalType": "uint256",
          "name": "_tokenId",
          "type": "uint256"
        },
        {
          "internalType": "uint256",
          "name": "_price",
          "type": "uint256"
        },
        {
          "internalType": "address",
          "name": "_tokenAddress",
          "type": "address"
        },
        {
          "internalType": "address",
          "name": "_ownerAddress",
          "type": "address"
        }
      ],
      "name": "setPrice",
      "outputs": [],
      "stateMutability": "nonpayable",
      "type": "function"
    },
    {
      "inputs": [
        {
          "internalType": "bytes4",
          "name": "interfaceId",
          "type": "bytes4"
        }
      ],
      "name": "supportsInterface",
      "outputs": [
        {
          "internalType": "bool",
          "name": "",
          "type": "bool"
        }
      ],
      "stateMutability": "view",
      "type": "function"
    },
    {
      "inputs": [],
      "name": "symbol",
      "outputs": [
        {
          "internalType": "string",
          "name": "",
          "type": "string"
        }
      ],
      "stateMutability": "view",
      "type": "function"
    },
    {
      "inputs": [
        {
          "internalType": "uint256",
          "name": "",
          "type": "uint256"
        }
      ],
      "name": "tokenIdToPrice",
      "outputs": [
        {
          "internalType": "uint256",
          "name": "",
          "type": "uint256"
        }
      ],
      "stateMutability": "view",
      "type": "function"
    },
    {
      "inputs": [
        {
          "internalType": "uint256",
          "name": "",
          "type": "uint256"
        }
      ],
      "name": "tokenIdToTokenAddress",
      "outputs": [
        {
          "internalType": "address",
          "name": "",
          "type": "address"
        }
      ],
      "stateMutability": "view",
      "type": "function"
    },
    {
      "inputs": [
        {
          "internalType": "uint256",
          "name": "tokenId",
          "type": "uint256"
        }
      ],
      "name": "tokenURI",
      "outputs": [
        {
          "internalType": "string",
          "name": "",
          "type": "string"
        }
      ],
      "stateMutability": "view",
      "type": "function"
    },
    {
      "inputs": [
        {
          "internalType": "address",
          "name": "_to",
          "type": "address"
        },
        {
          "internalType": "uint256",
          "name": "_tokenId",
          "type": "uint256"
        }
      ],
      "name": "transfer",
      "outputs": [],
      "stateMutability": "nonpayable",
      "type": "function"
    },
    {
      "inputs": [
        {
          "internalType": "address",
          "name": "from",
          "type": "address"
        },
        {
          "internalType": "address",
          "name": "to",
          "type": "address"
        },
        {
          "internalType": "uint256",
          "name": "tokenId",
          "type": "uint256"
        }
      ],
      "name": "transferFrom",
      "outputs": [],
      "stateMutability": "nonpayable",
      "type": "function"
    },
    {
      "inputs": [
        {
          "internalType": "address",
          "name": "newOwner",
          "type": "address"
        }
      ],
      "name": "transferOwnership",
      "outputs": [],
      "stateMutability": "nonpayable",
      "type": "function"
    }
  ],
  "bytecode": "0x60806040523480156200001157600080fd5b506040518060400160405280600581526020017f4d794e46540000000000000000000000000000000000000000000000000000008152506040518060400160405280600381526020017f4e46540000000000000000000000000000000000000000000000000000000000815250816000908051906020019062000096929190620001a6565b508060019080519060200190620000af929190620001a6565b505050620000d2620000c6620000d860201b60201c565b620000e060201b60201c565b620002bb565b600033905090565b6000600760009054906101000a900473ffffffffffffffffffffffffffffffffffffffff16905081600760006101000a81548173ffffffffffffffffffffffffffffffffffffffff021916908373ffffffffffffffffffffffffffffffffffffffff1602179055508173ffffffffffffffffffffffffffffffffffffffff168173ffffffffffffffffffffffffffffffffffffffff167f8be0079c531659141344cd1fd0a4f28419497f9722a3daafe3b4186f6b6457e060405160405180910390a35050565b828054620001b49062000256565b90600052602060002090601f016020900481019282620001d8576000855562000224565b82601f10620001f357805160ff191683800117855562000224565b8280016001018555821562000224579182015b828111156200022357825182559160200191906001019062000206565b5b50905062000233919062000237565b5090565b5b808211156200025257600081600090555060010162000238565b5090565b600060028204905060018216806200026f57607f821691505b602082108114156200028657620002856200028c565b5b50919050565b7f4e487b7100000000000000000000000000000000000000000000000000000000600052602260045260246000fd5b61389180620002cb6000396000f3fe60806040526004361061014b5760003560e01c80637deb6025116100b6578063b88d4fde1161006f578063b88d4fde14610491578063c87b56dd146104ba578063e985e9c5146104f7578063eacabe1414610534578063f2fde38b14610571578063f4812eb91461059a5761014b565b80637deb6025146103905780638da5cb5b146103ac57806395d89b41146103d7578063a22cb46514610402578063a9059cbb1461042b578063b4c635b2146104545761014b565b80632b57cfbb116101085780632b57cfbb1461027057806342842e0e146102ad5780634624f537146102d65780636352211e146102ff57806370a082311461033c578063715018a6146103795761014b565b806301ffc9a71461015057806306fdde031461018d578063081812fc146101b8578063095ea7b3146101f557806323b872dd1461021e578063284b4b9f14610247575b600080fd5b34801561015c57600080fd5b50610177600480360381019061017291906126fa565b6105d7565b6040516101849190613149565b60405180910390f35b34801561019957600080fd5b506101a26106b9565b6040516101af9190613164565b60405180910390f35b3480156101c457600080fd5b506101df60048036038101906101da919061274c565b61074b565b6040516101ec91906130ab565b60405180910390f35b34801561020157600080fd5b5061021c600480360381019061021791906126be565b6107d0565b005b34801561022a57600080fd5b5061024560048036038101906102409190612564565b6108e8565b005b34801561025357600080fd5b5061026e600480360381019061026991906127b1565b610948565b005b34801561027c57600080fd5b5061029760048036038101906102929190612775565b610a1e565b6040516102a49190613426565b60405180910390f35b3480156102b957600080fd5b506102d460048036038101906102cf9190612564565b610a94565b005b3480156102e257600080fd5b506102fd60048036038101906102f89190612800565b610ab4565b005b34801561030b57600080fd5b506103266004803603810190610321919061274c565b610b9a565b60405161033391906130ab565b60405180910390f35b34801561034857600080fd5b50610363600480360381019061035e91906124ff565b610c4c565b6040516103709190613426565b60405180910390f35b34801561038557600080fd5b5061038e610d04565b005b6103aa60048036038101906103a59190612775565b610d8c565b005b3480156103b857600080fd5b506103c1610f16565b6040516103ce91906130ab565b60405180910390f35b3480156103e357600080fd5b506103ec610f40565b6040516103f99190613164565b60405180910390f35b34801561040e57600080fd5b506104296004803603810190610424919061262e565b610fd2565b005b34801561043757600080fd5b50610452600480360381019061044d91906126be565b610fe8565b005b34801561046057600080fd5b5061047b6004803603810190610476919061274c565b611104565b60405161048891906130ab565b60405180910390f35b34801561049d57600080fd5b506104b860048036038101906104b391906125b3565b611137565b005b3480156104c657600080fd5b506104e160048036038101906104dc919061274c565b611199565b6040516104ee9190613164565b60405180910390f35b34801561050357600080fd5b5061051e60048036038101906105199190612528565b6112eb565b60405161052b9190613149565b60405180910390f35b34801561054057600080fd5b5061055b6004803603810190610556919061266a565b61137f565b6040516105689190613426565b60405180910390f35b34801561057d57600080fd5b50610598600480360381019061059391906124ff565b611433565b005b3480156105a657600080fd5b506105c160048036038101906105bc919061274c565b61152b565b6040516105ce9190613426565b60405180910390f35b60007f80ac58cd000000000000000000000000000000000000000000000000000000007bffffffffffffffffffffffffffffffffffffffffffffffffffffffff1916827bffffffffffffffffffffffffffffffffffffffffffffffffffffffff191614806106a257507f5b5e139f000000000000000000000000000000000000000000000000000000007bffffffffffffffffffffffffffffffffffffffffffffffffffffffff1916827bffffffffffffffffffffffffffffffffffffffffffffffffffffffff1916145b806106b257506106b182611543565b5b9050919050565b6060600080546106c890613686565b80601f01602080910402602001604051908101604052809291908181526020018280546106f490613686565b80156107415780601f1061071657610100808354040283529160200191610741565b820191906000526020600020905b81548152906001019060200180831161072457829003601f168201915b5050505050905090565b6000610756826115ad565b610795576040517f08c379a000000000000000000000000000000000000000000000000000000000815260040161078c90613326565b60405180910390fd5b6004600083815260200190815260200160002060009054906101000a900473ffffffffffffffffffffffffffffffffffffffff169050919050565b60006107db82610b9a565b90508073ffffffffffffffffffffffffffffffffffffffff168373ffffffffffffffffffffffffffffffffffffffff16141561084c576040517f08c379a0000000000000000000000000000000000000000000000000000000008152600401610843906133c6565b60405180910390fd5b8073ffffffffffffffffffffffffffffffffffffffff1661086b611619565b73ffffffffffffffffffffffffffffffffffffffff16148061089a575061089981610894611619565b6112eb565b5b6108d9576040517f08c379a00000000000000000000000000000000000000000000000000000000081526004016108d090613266565b60405180910390fd5b6108e38383611621565b505050565b6108f96108f3611619565b826116da565b610938576040517f08c379a000000000000000000000000000000000000000000000000000000000815260040161092f90613406565b60405180910390fd5b6109438383836117b8565b505050565b61095183610b9a565b73ffffffffffffffffffffffffffffffffffffffff168173ffffffffffffffffffffffffffffffffffffffff16146109be576040517f08c379a00000000000000000000000000000000000000000000000000000000081526004016109b5906133e6565b60405180910390fd5b60008211610a01576040517f08c379a00000000000000000000000000000000000000000000000000000000081526004016109f890613386565b60405180910390fd5b816009600085815260200190815260200160002081905550505050565b600081600a600085815260200190815260200160002060006101000a81548173ffffffffffffffffffffffffffffffffffffffff021916908373ffffffffffffffffffffffffffffffffffffffff1602179055506000600960008581526020019081526020016000205490508091505092915050565b610aaf83838360405180602001604052806000815250611137565b505050565b610abd84610b9a565b73ffffffffffffffffffffffffffffffffffffffff168173ffffffffffffffffffffffffffffffffffffffff1614610b2a576040517f08c379a0000000000000000000000000000000000000000000000000000000008152600401610b21906133e6565b60405180910390fd5b82600960008681526020019081526020016000208190555081600a600086815260200190815260200160002060006101000a81548173ffffffffffffffffffffffffffffffffffffffff021916908373ffffffffffffffffffffffffffffffffffffffff16021790555050505050565b6000806002600084815260200190815260200160002060009054906101000a900473ffffffffffffffffffffffffffffffffffffffff169050600073ffffffffffffffffffffffffffffffffffffffff168173ffffffffffffffffffffffffffffffffffffffff161415610c43576040517f08c379a0000000000000000000000000000000000000000000000000000000008152600401610c3a906132a6565b60405180910390fd5b80915050919050565b60008073ffffffffffffffffffffffffffffffffffffffff168273ffffffffffffffffffffffffffffffffffffffff161415610cbd576040517f08c379a0000000000000000000000000000000000000000000000000000000008152600401610cb490613286565b60405180910390fd5b600360008373ffffffffffffffffffffffffffffffffffffffff1673ffffffffffffffffffffffffffffffffffffffff168152602001908152602001600020549050919050565b610d0c611619565b73ffffffffffffffffffffffffffffffffffffffff16610d2a610f16565b73ffffffffffffffffffffffffffffffffffffffff1614610d80576040517f08c379a0000000000000000000000000000000000000000000000000000000008152600401610d7790613346565b60405180910390fd5b610d8a6000611a14565b565b60006009600084815260200190815260200160002054905060008111610de7576040517f08c379a0000000000000000000000000000000000000000000000000000000008152600401610dde906131a6565b60405180910390fd5b6000610df284610b9a565b9050610dff8184866117b8565b610e0884610b9a565b73ffffffffffffffffffffffffffffffffffffffff168373ffffffffffffffffffffffffffffffffffffffff1614610e75576040517f08c379a0000000000000000000000000000000000000000000000000000000008152600401610e6c906133e6565b60405180910390fd5b600060096000868152602001908152602001600020819055508073ffffffffffffffffffffffffffffffffffffffff166108fc349081150290604051600060405180830381858888f19350505050158015610ed4573d6000803e3d6000fd5b507f608f6ac9327c2bf4d3c77adf447d2c448ba7b0971e0aaa9aa03f7ac29d874a44818434604051610f08939291906130c6565b60405180910390a150505050565b6000600760009054906101000a900473ffffffffffffffffffffffffffffffffffffffff16905090565b606060018054610f4f90613686565b80601f0160208091040260200160405190810160405280929190818152602001828054610f7b90613686565b8015610fc85780601f10610f9d57610100808354040283529160200191610fc8565b820191906000526020600020905b815481529060010190602001808311610fab57829003601f168201915b5050505050905090565b610fe4610fdd611619565b8383611ada565b5050565b6008600082815260200190815260200160002060009054906101000a900473ffffffffffffffffffffffffffffffffffffffff1673ffffffffffffffffffffffffffffffffffffffff163373ffffffffffffffffffffffffffffffffffffffff161461105357600080fd5b816008600083815260200190815260200160002060006101000a81548173ffffffffffffffffffffffffffffffffffffffff021916908373ffffffffffffffffffffffffffffffffffffffff160217905550808273ffffffffffffffffffffffffffffffffffffffff163373ffffffffffffffffffffffffffffffffffffffff167f45d0465cda3936ccc7ee223b12be71e3f5da003b041626b6faf29ad2c62eb9ae60405160405180910390a45050565b600a6020528060005260406000206000915054906101000a900473ffffffffffffffffffffffffffffffffffffffff1681565b611148611142611619565b836116da565b611187576040517f08c379a000000000000000000000000000000000000000000000000000000000815260040161117e90613406565b60405180910390fd5b61119384848484611c47565b50505050565b60606111a4826115ad565b6111e3576040517f08c379a00000000000000000000000000000000000000000000000000000000081526004016111da90613306565b60405180910390fd5b600060066000848152602001908152602001600020805461120390613686565b80601f016020809104026020016040519081016040528092919081815260200182805461122f90613686565b801561127c5780601f106112515761010080835404028352916020019161127c565b820191906000526020600020905b81548152906001019060200180831161125f57829003601f168201915b50505050509050600061128d611ca3565b90506000815114156112a35781925050506112e6565b6000825111156112d85780826040516020016112c0929190613087565b604051602081830303815290604052925050506112e6565b6112e184611cba565b925050505b919050565b6000600560008473ffffffffffffffffffffffffffffffffffffffff1673ffffffffffffffffffffffffffffffffffffffff16815260200190815260200160002060008373ffffffffffffffffffffffffffffffffffffffff1673ffffffffffffffffffffffffffffffffffffffff16815260200190815260200160002060009054906101000a900460ff16905092915050565b6000611389611619565b73ffffffffffffffffffffffffffffffffffffffff166113a7610f16565b73ffffffffffffffffffffffffffffffffffffffff16146113fd576040517f08c379a00000000000000000000000000000000000000000000000000000000081526004016113f490613346565b60405180910390fd5b611407600b611d61565b6000611413600b611d77565b905061141f8482611d85565b6114298184611f53565b8091505092915050565b61143b611619565b73ffffffffffffffffffffffffffffffffffffffff16611459610f16565b73ffffffffffffffffffffffffffffffffffffffff16146114af576040517f08c379a00000000000000000000000000000000000000000000000000000000081526004016114a690613346565b60405180910390fd5b600073ffffffffffffffffffffffffffffffffffffffff168173ffffffffffffffffffffffffffffffffffffffff16141561151f576040517f08c379a0000000000000000000000000000000000000000000000000000000008152600401611516906131c6565b60405180910390fd5b61152881611a14565b50565b60096020528060005260406000206000915090505481565b60007f01ffc9a7000000000000000000000000000000000000000000000000000000007bffffffffffffffffffffffffffffffffffffffffffffffffffffffff1916827bffffffffffffffffffffffffffffffffffffffffffffffffffffffff1916149050919050565b60008073ffffffffffffffffffffffffffffffffffffffff166002600084815260200190815260200160002060009054906101000a900473ffffffffffffffffffffffffffffffffffffffff1673ffffffffffffffffffffffffffffffffffffffff1614159050919050565b600033905090565b816004600083815260200190815260200160002060006101000a81548173ffffffffffffffffffffffffffffffffffffffff021916908373ffffffffffffffffffffffffffffffffffffffff160217905550808273ffffffffffffffffffffffffffffffffffffffff1661169483610b9a565b73ffffffffffffffffffffffffffffffffffffffff167f8c5be1e5ebec7d5bd14f71427d1e84f3dd0314c0f7b2291e5b200ac8c7c3b92560405160405180910390a45050565b60006116e5826115ad565b611724576040517f08c379a000000000000000000000000000000000000000000000000000000000815260040161171b90613246565b60405180910390fd5b600061172f83610b9a565b90508073ffffffffffffffffffffffffffffffffffffffff168473ffffffffffffffffffffffffffffffffffffffff16148061179e57508373ffffffffffffffffffffffffffffffffffffffff166117868461074b565b73ffffffffffffffffffffffffffffffffffffffff16145b806117af57506117ae81856112eb565b5b91505092915050565b8273ffffffffffffffffffffffffffffffffffffffff166117d882610b9a565b73ffffffffffffffffffffffffffffffffffffffff161461182e576040517f08c379a000000000000000000000000000000000000000000000000000000000815260040161182590613366565b60405180910390fd5b600073ffffffffffffffffffffffffffffffffffffffff168273ffffffffffffffffffffffffffffffffffffffff16141561189e576040517f08c379a000000000000000000000000000000000000000000000000000000000815260040161189590613206565b60405180910390fd5b6118a9838383611fc7565b6118b4600082611621565b6001600360008573ffffffffffffffffffffffffffffffffffffffff1673ffffffffffffffffffffffffffffffffffffffff1681526020019081526020016000206000828254611904919061359c565b925050819055506001600360008473ffffffffffffffffffffffffffffffffffffffff1673ffffffffffffffffffffffffffffffffffffffff168152602001908152602001600020600082825461195b9190613515565b92505081905550816002600083815260200190815260200160002060006101000a81548173ffffffffffffffffffffffffffffffffffffffff021916908373ffffffffffffffffffffffffffffffffffffffff160217905550808273ffffffffffffffffffffffffffffffffffffffff168473ffffffffffffffffffffffffffffffffffffffff167fddf252ad1be2c89b69c2b068fc378daa952ba7f163c4a11628f55a4df523b3ef60405160405180910390a4505050565b6000600760009054906101000a900473ffffffffffffffffffffffffffffffffffffffff16905081600760006101000a81548173ffffffffffffffffffffffffffffffffffffffff021916908373ffffffffffffffffffffffffffffffffffffffff1602179055508173ffffffffffffffffffffffffffffffffffffffff168173ffffffffffffffffffffffffffffffffffffffff167f8be0079c531659141344cd1fd0a4f28419497f9722a3daafe3b4186f6b6457e060405160405180910390a35050565b8173ffffffffffffffffffffffffffffffffffffffff168373ffffffffffffffffffffffffffffffffffffffff161415611b49576040517f08c379a0000000000000000000000000000000000000000000000000000000008152600401611b4090613226565b60405180910390fd5b80600560008573ffffffffffffffffffffffffffffffffffffffff1673ffffffffffffffffffffffffffffffffffffffff16815260200190815260200160002060008473ffffffffffffffffffffffffffffffffffffffff1673ffffffffffffffffffffffffffffffffffffffff16815260200190815260200160002060006101000a81548160ff0219169083151502179055508173ffffffffffffffffffffffffffffffffffffffff168373ffffffffffffffffffffffffffffffffffffffff167f17307eab39ab6107e8899845ad3d59bd9653f200f220920489ca2b5937696c3183604051611c3a9190613149565b60405180910390a3505050565b611c528484846117b8565b611c5e84848484611fcc565b611c9d576040517f08c379a0000000000000000000000000000000000000000000000000000000008152600401611c9490613186565b60405180910390fd5b50505050565b606060405180602001604052806000815250905090565b6060611cc5826115ad565b611d04576040517f08c379a0000000000000000000000000000000000000000000000000000000008152600401611cfb906133a6565b60405180910390fd5b6000611d0e611ca3565b90506000815111611d2e5760405180602001604052806000815250611d59565b80611d3884612163565b604051602001611d49929190613087565b6040516020818303038152906040525b915050919050565b6001816000016000828254019250508190555050565b600081600001549050919050565b600073ffffffffffffffffffffffffffffffffffffffff168273ffffffffffffffffffffffffffffffffffffffff161415611df5576040517f08c379a0000000000000000000000000000000000000000000000000000000008152600401611dec906132e6565b60405180910390fd5b611dfe816115ad565b15611e3e576040517f08c379a0000000000000000000000000000000000000000000000000000000008152600401611e35906131e6565b60405180910390fd5b611e4a60008383611fc7565b6001600360008473ffffffffffffffffffffffffffffffffffffffff1673ffffffffffffffffffffffffffffffffffffffff1681526020019081526020016000206000828254611e9a9190613515565b92505081905550816002600083815260200190815260200160002060006101000a81548173ffffffffffffffffffffffffffffffffffffffff021916908373ffffffffffffffffffffffffffffffffffffffff160217905550808273ffffffffffffffffffffffffffffffffffffffff16600073ffffffffffffffffffffffffffffffffffffffff167fddf252ad1be2c89b69c2b068fc378daa952ba7f163c4a11628f55a4df523b3ef60405160405180910390a45050565b611f5c826115ad565b611f9b576040517f08c379a0000000000000000000000000000000000000000000000000000000008152600401611f92906132c6565b60405180910390fd5b80600660008481526020019081526020016000209080519060200190611fc2929190612323565b505050565b505050565b6000611fed8473ffffffffffffffffffffffffffffffffffffffff16612310565b15612156578373ffffffffffffffffffffffffffffffffffffffff1663150b7a02612016611619565b8786866040518563ffffffff1660e01b815260040161203894939291906130fd565b602060405180830381600087803b15801561205257600080fd5b505af192505050801561208357506040513d601f19601f820116820180604052508101906120809190612723565b60015b612106573d80600081146120b3576040519150601f19603f3d011682016040523d82523d6000602084013e6120b8565b606091505b506000815114156120fe576040517f08c379a00000000000000000000000000000000000000000000000000000000081526004016120f590613186565b60405180910390fd5b805181602001fd5b63150b7a0260e01b7bffffffffffffffffffffffffffffffffffffffffffffffffffffffff1916817bffffffffffffffffffffffffffffffffffffffffffffffffffffffff19161491505061215b565b600190505b949350505050565b606060008214156121ab576040518060400160405280600181526020017f3000000000000000000000000000000000000000000000000000000000000000815250905061230b565b600082905060005b600082146121dd5780806121c6906136b8565b915050600a826121d6919061356b565b91506121b3565b60008167ffffffffffffffff81111561221f577f4e487b7100000000000000000000000000000000000000000000000000000000600052604160045260246000fd5b6040519080825280601f01601f1916602001820160405280156122515781602001600182028036833780820191505090505b5090505b600085146123045760018261226a919061359c565b9150600a856122799190613701565b60306122859190613515565b60f81b8183815181106122c1577f4e487b7100000000000000000000000000000000000000000000000000000000600052603260045260246000fd5b60200101907effffffffffffffffffffffffffffffffffffffffffffffffffffffffffffff1916908160001a905350600a856122fd919061356b565b9450612255565b8093505050505b919050565b600080823b905060008111915050919050565b82805461232f90613686565b90600052602060002090601f0160209004810192826123515760008555612398565b82601f1061236a57805160ff1916838001178555612398565b82800160010185558215612398579182015b8281111561239757825182559160200191906001019061237c565b5b5090506123a591906123a9565b5090565b5b808211156123c25760008160009055506001016123aa565b5090565b60006123d96123d484613472565b613441565b9050828152602081018484840111156123f157600080fd5b6123fc848285613644565b509392505050565b6000612417612412846134a2565b613441565b90508281526020810184848401111561242f57600080fd5b61243a848285613644565b509392505050565b600081359050612451816137ff565b92915050565b60008135905061246681613816565b92915050565b60008135905061247b8161382d565b92915050565b6000815190506124908161382d565b92915050565b600082601f8301126124a757600080fd5b81356124b78482602086016123c6565b91505092915050565b600082601f8301126124d157600080fd5b81356124e1848260208601612404565b91505092915050565b6000813590506124f981613844565b92915050565b60006020828403121561251157600080fd5b600061251f84828501612442565b91505092915050565b6000806040838503121561253b57600080fd5b600061254985828601612442565b925050602061255a85828601612442565b9150509250929050565b60008060006060848603121561257957600080fd5b600061258786828701612442565b935050602061259886828701612442565b92505060406125a9868287016124ea565b9150509250925092565b600080600080608085870312156125c957600080fd5b60006125d787828801612442565b94505060206125e887828801612442565b93505060406125f9878288016124ea565b925050606085013567ffffffffffffffff81111561261657600080fd5b61262287828801612496565b91505092959194509250565b6000806040838503121561264157600080fd5b600061264f85828601612442565b925050602061266085828601612457565b9150509250929050565b6000806040838503121561267d57600080fd5b600061268b85828601612442565b925050602083013567ffffffffffffffff8111156126a857600080fd5b6126b4858286016124c0565b9150509250929050565b600080604083850312156126d157600080fd5b60006126df85828601612442565b92505060206126f0858286016124ea565b9150509250929050565b60006020828403121561270c57600080fd5b600061271a8482850161246c565b91505092915050565b60006020828403121561273557600080fd5b600061274384828501612481565b91505092915050565b60006020828403121561275e57600080fd5b600061276c848285016124ea565b91505092915050565b6000806040838503121561278857600080fd5b6000612796858286016124ea565b92505060206127a785828601612442565b9150509250929050565b6000806000606084860312156127c657600080fd5b60006127d4868287016124ea565b93505060206127e5868287016124ea565b92505060406127f686828701612442565b9150509250925092565b6000806000806080858703121561281657600080fd5b6000612824878288016124ea565b9450506020612835878288016124ea565b935050604061284687828801612442565b925050606061285787828801612442565b91505092959194509250565b61286c816135d0565b82525050565b61287b816135e2565b82525050565b600061288c826134d2565b61289681856134e8565b93506128a6818560208601613653565b6128af816137ee565b840191505092915050565b60006128c5826134dd565b6128cf81856134f9565b93506128df818560208601613653565b6128e8816137ee565b840191505092915050565b60006128fe826134dd565b612908818561350a565b9350612918818560208601613653565b80840191505092915050565b60006129316032836134f9565b91507f4552433732313a207472616e7366657220746f206e6f6e20455243373231526560008301527f63656976657220696d706c656d656e74657200000000000000000000000000006020830152604082019050919050565b6000612997601a836134f9565b91507f5468697320746f6b656e206973206e6f7420666f722073616c650000000000006000830152602082019050919050565b60006129d76026836134f9565b91507f4f776e61626c653a206e6577206f776e657220697320746865207a65726f206160008301527f64647265737300000000000000000000000000000000000000000000000000006020830152604082019050919050565b6000612a3d601c836134f9565b91507f4552433732313a20746f6b656e20616c7265616479206d696e746564000000006000830152602082019050919050565b6000612a7d6024836134f9565b91507f4552433732313a207472616e7366657220746f20746865207a65726f2061646460008301527f72657373000000000000000000000000000000000000000000000000000000006020830152604082019050919050565b6000612ae36019836134f9565b91507f4552433732313a20617070726f766520746f2063616c6c6572000000000000006000830152602082019050919050565b6000612b23602c836134f9565b91507f4552433732313a206f70657261746f7220717565727920666f72206e6f6e657860008301527f697374656e7420746f6b656e00000000000000000000000000000000000000006020830152604082019050919050565b6000612b896038836134f9565b91507f4552433732313a20617070726f76652063616c6c6572206973206e6f74206f7760008301527f6e6572206e6f7220617070726f76656420666f7220616c6c00000000000000006020830152604082019050919050565b6000612bef602a836134f9565b91507f4552433732313a2062616c616e636520717565727920666f7220746865207a6560008301527f726f2061646472657373000000000000000000000000000000000000000000006020830152604082019050919050565b6000612c556029836134f9565b91507f4552433732313a206f776e657220717565727920666f72206e6f6e657869737460008301527f656e7420746f6b656e00000000000000000000000000000000000000000000006020830152604082019050919050565b6000612cbb602e836134f9565b91507f45524337323155524953746f726167653a2055524920736574206f66206e6f6e60008301527f6578697374656e7420746f6b656e0000000000000000000000000000000000006020830152604082019050919050565b6000612d216020836134f9565b91507f4552433732313a206d696e7420746f20746865207a65726f20616464726573736000830152602082019050919050565b6000612d616031836134f9565b91507f45524337323155524953746f726167653a2055524920717565727920666f722060008301527f6e6f6e6578697374656e7420746f6b656e0000000000000000000000000000006020830152604082019050919050565b6000612dc7602c836134f9565b91507f4552433732313a20617070726f76656420717565727920666f72206e6f6e657860008301527f697374656e7420746f6b656e00000000000000000000000000000000000000006020830152604082019050919050565b6000612e2d6020836134f9565b91507f4f776e61626c653a2063616c6c6572206973206e6f7420746865206f776e65726000830152602082019050919050565b6000612e6d6029836134f9565b91507f4552433732313a207472616e73666572206f6620746f6b656e2074686174206960008301527f73206e6f74206f776e00000000000000000000000000000000000000000000006020830152604082019050919050565b6000612ed3600a836134f9565b91507f5072696365207a65726f000000000000000000000000000000000000000000006000830152602082019050919050565b6000612f13602f836134f9565b91507f4552433732314d657461646174613a2055524920717565727920666f72206e6f60008301527f6e6578697374656e7420746f6b656e00000000000000000000000000000000006020830152604082019050919050565b6000612f796021836134f9565b91507f4552433732313a20617070726f76616c20746f2063757272656e74206f776e6560008301527f72000000000000000000000000000000000000000000000000000000000000006020830152604082019050919050565b6000612fdf6017836134f9565b91507f4e6f74206f776e6572206f66207468697320746f6b656e0000000000000000006000830152602082019050919050565b600061301f6031836134f9565b91507f4552433732313a207472616e736665722063616c6c6572206973206e6f74206f60008301527f776e6572206e6f7220617070726f7665640000000000000000000000000000006020830152604082019050919050565b6130818161363a565b82525050565b600061309382856128f3565b915061309f82846128f3565b91508190509392505050565b60006020820190506130c06000830184612863565b92915050565b60006060820190506130db6000830186612863565b6130e86020830185612863565b6130f56040830184613078565b949350505050565b60006080820190506131126000830187612863565b61311f6020830186612863565b61312c6040830185613078565b818103606083015261313e8184612881565b905095945050505050565b600060208201905061315e6000830184612872565b92915050565b6000602082019050818103600083015261317e81846128ba565b905092915050565b6000602082019050818103600083015261319f81612924565b9050919050565b600060208201905081810360008301526131bf8161298a565b9050919050565b600060208201905081810360008301526131df816129ca565b9050919050565b600060208201905081810360008301526131ff81612a30565b9050919050565b6000602082019050818103600083015261321f81612a70565b9050919050565b6000602082019050818103600083015261323f81612ad6565b9050919050565b6000602082019050818103600083015261325f81612b16565b9050919050565b6000602082019050818103600083015261327f81612b7c565b9050919050565b6000602082019050818103600083015261329f81612be2565b9050919050565b600060208201905081810360008301526132bf81612c48565b9050919050565b600060208201905081810360008301526132df81612cae565b9050919050565b600060208201905081810360008301526132ff81612d14565b9050919050565b6000602082019050818103600083015261331f81612d54565b9050919050565b6000602082019050818103600083015261333f81612dba565b9050919050565b6000602082019050818103600083015261335f81612e20565b9050919050565b6000602082019050818103600083015261337f81612e60565b9050919050565b6000602082019050818103600083015261339f81612ec6565b9050919050565b600060208201905081810360008301526133bf81612f06565b9050919050565b600060208201905081810360008301526133df81612f6c565b9050919050565b600060208201905081810360008301526133ff81612fd2565b9050919050565b6000602082019050818103600083015261341f81613012565b9050919050565b600060208201905061343b6000830184613078565b92915050565b6000604051905081810181811067ffffffffffffffff82111715613468576134676137bf565b5b8060405250919050565b600067ffffffffffffffff82111561348d5761348c6137bf565b5b601f19601f8301169050602081019050919050565b600067ffffffffffffffff8211156134bd576134bc6137bf565b5b601f19601f8301169050602081019050919050565b600081519050919050565b600081519050919050565b600082825260208201905092915050565b600082825260208201905092915050565b600081905092915050565b60006135208261363a565b915061352b8361363a565b9250827fffffffffffffffffffffffffffffffffffffffffffffffffffffffffffffffff038211156135605761355f613732565b5b828201905092915050565b60006135768261363a565b91506135818361363a565b92508261359157613590613761565b5b828204905092915050565b60006135a78261363a565b91506135b28361363a565b9250828210156135c5576135c4613732565b5b828203905092915050565b60006135db8261361a565b9050919050565b60008115159050919050565b60007fffffffff0000000000000000000000000000000000000000000000000000000082169050919050565b600073ffffffffffffffffffffffffffffffffffffffff82169050919050565b6000819050919050565b82818337600083830152505050565b60005b83811015613671578082015181840152602081019050613656565b83811115613680576000848401525b50505050565b6000600282049050600182168061369e57607f821691505b602082108114156136b2576136b1613790565b5b50919050565b60006136c38261363a565b91507fffffffffffffffffffffffffffffffffffffffffffffffffffffffffffffffff8214156136f6576136f5613732565b5b600182019050919050565b600061370c8261363a565b91506137178361363a565b92508261372757613726613761565b5b828206905092915050565b7f4e487b7100000000000000000000000000000000000000000000000000000000600052601160045260246000fd5b7f4e487b7100000000000000000000000000000000000000000000000000000000600052601260045260246000fd5b7f4e487b7100000000000000000000000000000000000000000000000000000000600052602260045260246000fd5b7f4e487b7100000000000000000000000000000000000000000000000000000000600052604160045260246000fd5b6000601f19601f8301169050919050565b613808816135d0565b811461381357600080fd5b50565b61381f816135e2565b811461382a57600080fd5b50565b613836816135ee565b811461384157600080fd5b50565b61384d8161363a565b811461385857600080fd5b5056fea26469706673582212205cd93ced44fc5bac6d346c2c98126a3cf3e5c2f18f97d157e77bff249e85c83164736f6c63430008000033",
  "linkReferences": {},
  "deployedLinkReferences": {}
}